:10006A0020B0FD7F057E0012008620B0F330B0FD7F
:0C007A00C2A37FC87E00120086D2A32221
:100045001200031200EB12006AE4F50BAD0BAF0BC7
:1000550012009D7F057E00120086050BE50BC394FB
:05006500FF40E980E40A
:0D009D008F098D08C292D293D296C297228D
:0D00AA008F098D08D292C293C296D2972280
:0D00B7008F098D08C292C293D296C2972283
:0D00C4008F098D08D292C293D296C2972266
:0D00D1008F098D08C292D293C296C2972269
:0D00DE008F098D08C292D293C296D297224C
:09010300C292C293C296C2972277
:05000300D2A9D2AF22DA
:0C00EB00438902758CA4758AA4D28C2273
:03000B0002000EE2
:10000E00C0E0C0D0E50AB4FF03750A00E508C39549
:10001E000A4002D295E509C3950A4002D294E50939
:10002E00C3950A5002C294E508C3950A5002C295C0
:07003E00050AD0D0D0E0322A
:100086007D737C00ED1D70011C144C70F7EF1F7022
:06009600011E144E70EA89
:01009C002241
:030000000200F704
:0C00F700787FE4F6D8FD75810B0200450F
:00000001FF
