:10088800506C656173652070726573732074686558
:0D08980000533220746F207374617274007D
:1008A50020B0FD7F057E001208D920B0F330B0FDE1
:0C08B500C2A37FC87E001208D9D2A32283
:10073500751C96751D961200031209861209CF12B3
:1007450008F01208007BFF7A087988E4FDFF12079C
:10075500D87BFF7A0879997D01E4FF1207D8120842
:0D076500A51209FD7F2C7E0112064480F7CD
:0D000E008F1F8D1EC292D293D296C29722F0
:0D0945008F1F8D1ED292C293C296D29722B0
:0D0952008F1F8D1EC292C293D296C29722B3
:0D095F008F1F8D1ED292C293D296C2972296
:0D096C008F1F8D1EC292D293C296C2972299
:0D0979008F1F8D1EC292D293C296D297227C
:0909C600C292C293C296C29722AC
:07000300D2A9D2ABD2AF225B
:0C098600438902758CA4758AA4D28C22CF
:0909CF00438910E4F58DF58B223B
:03000B0002077277
:10077200C0E0C0D00533E533B4FF03753300E51E96
:10078200C395334002D295E51FC395334002D294FC
:10079200E51FC395335002C294E51EC39533500240
:0707A200C295D0D0D0E03277
:03001B000209F3E4
:0509F300D200C2A03299
:1008D9007D737C00ED1D70011C144C70F7EF1F70C7
:0608E900011E144E70EA2E
:0108EF0022E6
:0409F8007F04DFFE9B
:0109FC0022D8
:0809D8007F037EC4DEFEDFFC9C
:0109E00022F4
:09099E00007F227E10DEFEDFFC6A
:0109A700222D
:0909A800007F027E0FDEFEDFFC81
:0109B1002223
:0909B200007F237EC5DEFEDFFCA0
:0109BB002219
:0809E1007F207E5DDEFEDFFCDD
:0109E90022EB
:0809EA007F057E78DEFEDFFCD4
:0109F20022E2
:100904007580FFC2B5D2B6D2B4AF80C2B4EF20E7CF
:01091400F6EC
:0109150022BF
:10091600AE07120904C2B5C2B68E80D2B4C2B422E2
:10092600AE07120904D2B5C2B68E80D2B4C2B422C2
:0509FD007F0102091654
:0C099200ED600343074043078002091694
:0A09BC00AC03120992AF04020926F1
:1007D8008B278A288929120992AB27AA28A92912C6
:1007E80001E360130529E5297002052814F91201AF
:0807F800E3FF12092680E22252
:1008F0007F381209167F0C1209167F061209167F1F
:0409000001020916D1
:0F093600C2A10000000000D2A11209F8C2A12244
:1006F000E4F525F526F527F52812093630A0FDD2B8
:100700008E20A0FDC28EAF8DEFFEAD8B7C00E42D60
:10071000F528EC3EF527E4F58DF58BAC27AD2812D6
:1007200001297B777AE0793C783E12001E12016243
:040730008E258F265D
:0107340022A2
:1007A900212121204F7574206F662072616E676563
:1007B9000044697374616E63653A30303030204D9E
:0F07C9004D0030313233343536373839000000C7
:10086900041800000000021600000208000002142B
:0E08790000000A0A000000000000000000005D
:100453008E258F26C3E5269488E525941350033013
:10046300000FC2007BFF7A0779A97D01E4FF020731
:10047300D8AE25AF267C037DE81201FC8F18AE258C
:10048300AF267C037DE81201FC7E007F64CFCDCFD5
:10049300CECCCE1201FC8F19AE25AF267C007D6435
:1004A3001201FC7E007F0ACFCDCFCECCCE1201FC51
:1004B3008F1AAE25AF267C007D0A1201FC8D1B7BB3
:1004C300FF7A0779BA7D01E4FF1207D8E518900790
:1004D300CB93FB7D017F091209BCE5199007CB93F0
:1004E300FB7D017F0A1209BCE51A9007CB93FB7DC4
:1004F300017F0B1209BCE51B9007CB93FB7D017FAA
:050503000C1209BC22EE
:020508008D2A3A
:10050A00E4F52BF52CE52A24FFFFE434FFFEC3E5CE
:10051A002C9FE52B9E40030205B7E52C2401F52EFE
:10052A00E4352BF52DC3E52E952AE52D9400506F61
:10053A00E52E25E0FFE52D338F82F583120251FD6A
:10054A00ACF0E52C25E0FFE52B338F82F583120210
:10055A0051FFAEF0D39DEE9C403B8E2F8F30E52E9F
:10056A0025E0FFE52D338F82F583120251FDE52C3C
:10057A0025E0FFE52B338F82F583E5F08DF012023B
:10058A0089E52E25E0FFE52D338F82F583E52F855A
:10059A0030F0120289052EE52E708A052D80860517
:0D05AA002CE52C600302050F052B02050F48
:0105B7002221
:1006A900E4F5341206F0E53425E0240AF8A6060834
:1006B900A6077F3C7E001208D90534E534C39405AA
:1006C90040E17B007A00790A7D05120508E50D25D0
:1006D9000FFFE50C350EFEE5112FFFE5103EFE7C00
:0606E900007D031201FC7C
:0106EF0022E8
:1008C100209007AD1DAF1C02096CAD1DAF1C20911E
:0808D1000302095212000E227D
:040644008E218F2252
:100648001206F08E238F247B46E4FDFF1209BCAF0F
:1006580024AE23120453C3E5249522E523952150A3
:10066800261209C67F647E001208D9AD1DAF1C1280
:1006780009457F327E001208D9AD1DAF1C12095FF3
:100688007F647E000208D9E4F523F5241208C10529
:1006980024E52470020523C39408E523940740EC5D
:0106A800222F
:1002C4001206F08E318F32C3E532942CE53194015D
:1002D40040030204397B44E4FDFF1209BCAF32AE93
:1002E400311204531209C67F647E001208D9120821
:1002F400231206A98E168F177B4CE4FDFF1209BC4E
:10030400AF17AE161204537F647E001208D9120888
:10031400461206A98E088F097B52E4FDFF1209BC20
:10032400AF09AE081204537F647E001208D9120884
:10033400001206A98E148F157B46E4FDFF1209BC3A
:10034400AF15AE141204537F647E001208D9C3E5BE
:10035400159464E51494005050C3E5179464E516AD
:1003640094005045C3E5099464E5089400503A7D2F
:10037400FF7FFF12095F7F327E001208D912080046
:100384001206A98E318F327B44E4FDFF1209BCAF03
:1003940032AE311204537F647E001208D9C3E532B1
:1003A40094C8E531940040C722D3E5179509E516B2
:1003B4009508401F7B4CE4FDFF1209BCAF17AE1635
:1003C4001204537F647E001208D97DFF7FFF120957
:1003D4005F8028D3E5099517E508951640247B52DC
:1003E400E4FDFF1209BCAF09AE081204537F647E1A
:1003F400001208D97DFF7FFF1209797F507E000229
:1004040008D9D3E5159517E51495164041D3E5159C
:100414009509E514950840367B46E4FDFF1209BCB6
:10042400AF15AE141204537F647E001208D9AD1DBB
:10043400AF1C02000EE4F531F5321208C10532E5B5
:0E0444003270020531C39408E531940740EC94
:010452002287
:10080000C2AFE4F521D2A71209D8C2A712099E05EA
:1008100021C3E5216480948A40EBD2AF7F207E0320
:030820000208D9F2
:10082300C2AFE4F535D2A71209EAC2A71209E1055E
:1008330035C3E5356480948A40EBD2AF7F207E03D5
:030843000208D9CF
:10084600C2AFE4F536D2A71209A8C2A71209B205AB
:1008560036C3E5366480948A40EBD2AF7F207E03B0
:030866000208D9AC
:10001E00EC4D6011E8497017ED33EC3304600DE4DC
:10002E00FCFFFEFD22E933E8330470F80201CE1224
:10003E00019958046009E4CC248150062850090225
:10004E0001D82840030201D5C0E0EB4A7044B980C4
:10005E0006D0E0FB0201C4EF4E701CBD8008EBFF22
:10006E00EAFEE9FD80EBE98DF0A4FEE5F002010762
:10007E00E9CDF9EAFEEBFFEF89F0A4FCE5F0CE89BD
:10008E00F0A42EFFE435F0CD89F0A42DFEE435F07A
:10009E008067EF4E7005BD80D780C3EF8BF0A4ACA8
:1000AE00F0EE8BF0A42CFCE435F0F8EF8AF0A42CE3
:1000BE00E5F038FCE433CB8DF0A42CFCE5F03BF8F6
:1000CE00EE8AF0A42CFCE5F038F8E433CF89F0A4E6
:1000DE002CFCE5F038CF3400CE89F0A42FFFE5F0EC
:1000EE003EFEE433C98DF0A42EFEE5F039CD8AF044
:1000FE00A42FFFE5F03EFEE43DFD33D0E0FB5007BC
:10010E000BBB000F0201D8EC2CFCEF33FFEE33FEDD
:06011E00ED33FD0201B00B
:1001240075F020800E75F010800575F0087D007E56
:10013400007F003392D530D5031202B6EC33401061
:10014400EF33FFEE33FEED33FDEC33FCD5F0ED225F
:0E015400E5F0247EA2D513CC92E7CDCEFF229B
:10016200EDD2E7CD33EC3392D524814006E4FFFE95
:10017200FDFC22FCE4CFCECDCC24E0501174FF80F4
:10018200EDC3CC13CCCD13CDCE13CECF13CF047091
:07019200F030D5DE0202B6D9
:10019900E9D2E7C933E833F892D5EDD2E7CD33ECAC
:0701A90033FC5002B2D52225
:1001B000EC30E7100FBF000C0EBE00080DBD0004B0
:1001C0000BEB6014A2D5EB13FCED92E7FD2274FF5C
:1001D000FCFDFEFF22E480F8A2D574FF13FC7D80B5
:0301E000E480EFC9
:030000000205B83E
:0C05B800787FE4F6D8FD7581360205FF5F
:1001E300BB010689828A83E0225002E722BBFE021A
:0901F300E32289828A83E493224D
:1001FC00BC000BBE0029EF8DF084FFADF022E4CCE7
:10020C00F875F008EF2FFFEE33FEEC33FCEE9DECAF
:10021C00984005FCEE9DFE0FD5F0E9E4CEFD22EDF5
:10022C00F8F5F0EE8420D21CFEADF075F008EF2F3F
:10023C00FFED33FD4007985006D5F0F222C398FD30
:05024C000FD5F0EA22CD
:10025100BB0110E58229F582E5833AF583E0F5F0EB
:10026100A3E0225009E92582F886F008E622BBFEC8
:100271000AE92582F8E2F5F008E222E5832AF5830E
:08028100E993F5F0A3E99322D3
:10028900F8BB0111E58229F582E5833AF583E8F0A7
:10029900E5F0A3F0225009E92582C8F608A6F02264
:0D02A900BBFE09E92582C8F2E5F008F2224B
:0E02B600C3E49FFFE49EFEE49DFDE49CFC2259
:1005C400020735E493A3F8E493A34003F68001F211
:1005D40008DFF48029E493A3F85407240CC8C33338
:1005E400C4540F4420C8834004F456800146F6DF07
:1005F400E4800B0102040810204080900869E47E26
:10060400019360BCA3FF543F30E509541FFEE493FB
:10061400A360010ECF54C025E060A840B8E493A3C2
:10062400FAE493A3F8E493A3C8C582C8CAC583CAED
:10063400F0A3C8C582C8CAC583CADFE9DEE780BEA5
:010887000070
:00000001FF
