:10007F0020B0FD7F057E0012009B20B0F330B0FD55
:0C008F00C2A37FC87E0012009BD2A322F7
:1000B2007508967509961200031200FA12007F1253
:0400C200000E80FBB1
:0D00C6008F0B8D0AC292D293D296C2972260
:0D00D3008F0B8D0AC292C293D296C2972263
:0D00E0008F0B8D0AC292D293C296C2972256
:0D00ED008F0B8D0AC292D293C296D2972239
:05000300D2A9D2AF22DA
:0C00FA00438902758CA4758AA4D28C2264
:03000B00020048A8
:10004800C0E0C0D0E50CB4FF03750C00E50AC39509
:100058000C4002D295E50BC3950C4002D294E50BF7
:10006800C3950C5002C294E50AC3950C5002C29580
:07007800050CD0D0D0E032EE
:10009B007D737C00ED1D70011C144C70F7EF1F700D
:0600AB00011E144E70EA74
:0100B100222C
:10000E0020B40C30B509AD09AF081200E0801C30E9
:10001E00B40C20B509AD09AF081200D3800D20B481
:10002E001120B50EAD09AF081200ED7F647E0002FF
:0A003E00009BAD09AF081200C622B6
:03000000020106F4
:0C010600787FE4F6D8FD75810C0200B291
:00000001FF
