:10006D0020B0FD7F057E0012008920B0F330B0FD79
:0C007D00C2A37FC87E00120089D2A3221B
:1000A00075086E75096E12000312010212006D12BE
:0400B000004580FB8C
:0D00B4008F0B8D0AC292D293D296C2972272
:0D00C1008F0B8D0AD292C293C296D2972265
:0D00CE008F0B8D0AC292C293D296C2972268
:0D00DB008F0B8D0AD292C293D296C297224B
:0D00E8008F0B8D0AC292D293C296C297224E
:0D00F5008F0B8D0AC292D293C296D2972231
:09011A00C292C293C296C2972260
:05000300D2A9D2AF22DA
:0C010200438902758CA4758AA4D28C225B
:03000B0002000EE2
:10000E00C0E0C0D0E50CB4FF03750C00E50AC39543
:10001E000C4002D295E50BC3950C4002D294E50B31
:10002E00C3950C5002C294E50AC3950C5002C295BA
:07003E00050CD0D0D0E03228
:100089007D737C00ED1D70011C144C70F7EF1F701F
:06009900011E144E70EA86
:01009F00223E
:1000450030B30A30B207AD09AF080200B420B30AD5
:1000550030B207AD097FFF0200E830B30A20B207CE
:080065007DFFAF081200CE225E
:0300000002010EEC
:0C010E00787FE4F6D8FD75810C0200A09B
:00000001FF
