:10090B0020B0FD7F057E0012093F20B0F330B0FD13
:0C091B00C2A37FC87E0012093FD2A322B5
:1008ED0075336E75346E1200031209D8120A211277
:0E08FD00086512090B7F327E001206A180F7FB
:0D000E008F368D35C292D293D296C29722C2
:0D0997008F368D35D292C293C296D2972230
:0D09A4008F368D35C292C293D296C2972233
:0D09B1008F368D35D292C293D296C2972216
:0D09BE008F368D35C292D293C296C2972219
:0D09CB008F368D35C292D293C296D29722FC
:090A1800C292C293C296C2972259
:07000300D2A9D2ABD2AF225B
:0C09D800438902758CA4758AA4D28C227D
:090A2100438910E4F58DF58B22E8
:03000B0002077E6B
:10077E00C0E0C0D0053BE53BB4FF03753B00E5355B
:10078E00C3953B4002D295E536C3953B4002D294C9
:10079E00E536C3953B5002C294E535C3953B5002F6
:0707AE00C295D0D0D0E0326B
:03001B00020A4591
:050A4500D200C2A03246
:10093F007D737C00ED1D70011C144C70F7EF1F7060
:06094F00011E144E70EAC7
:01095500227F
:040A4A007F04DFFE48
:010A4E002285
:080A2A007F037EC4DEFEDFFC49
:010A320022A1
:0909F000007F227E10DEFEDFFC18
:0109F90022DB
:0909FA00007F027E0FDEFEDFFC2F
:010A030022D0
:090A0400007F237EC5DEFEDFFC4D
:010A0D0022C6
:080A33007F207E5DDEFEDFFC8A
:010A3B002298
:080A3C007F057E78DEFEDFFC81
:010A4400228F
:0F098800C2A10000000000D2A1120A4AC2A1229F
:10073900E4F525F526F527F52812098830A0FDD21C
:100749008E20A0FDC28EAF8DEFFEAD8B7C00E42D17
:10075900F528EC3EF527E4F58DF58BAC27AD28128D
:1007690001297B777AE0793C783E12001E120162FA
:040779008E258F2614
:01077D002259
:1007E600212121204F7574206F662072616E676526
:1007F6000044697374616E63653A30303030204D61
:0F0806004D003031323334353637383900000089
:1008CE0004180000000002160000020800000214C6
:0E08DE0000000A0A00000000000000000000F8
:100453008E378F38C3E5389488E5379413500330CB
:10046300000FC2007BFF7A0779E67D01E4FF0208F3
:100473003DAE37AF387C037DE81201FC8F18AE37F1
:10048300AF387C037DE81201FC7E007F64CFCDCFC3
:10049300CECCCE1201FC8F19AE37AF387C007D6411
:1004A3001201FC7E007F0ACFCDCFCECCCE1201FC51
:1004B3008F1AAE37AF387C007D0A1201FC8D1B7B8F
:1004C300FF7A0779F77D01E4FF12083DE5189008EC
:1004D3000893FB7D017F09120A0EE5199008089322
:1004E300FB7D017F0A120A0EE51A90080893FB7D33
:1004F300017F0B120A0EE51B90080893FB7D017F19
:050503000C120A0E229B
:020508008D293B
:10050A00E4F52AF52BE52924FFFFE434FFFEC3E5D1
:10051A002B9FE52A9E40030205B7E52B2401F52D02
:10052A00E4352AF52CC3E52D9529E52C9400506F66
:10053A00E52D25E0FFE52C338F82F583120251FD6C
:10054A00ACF0E52B25E0FFE52A338F82F583120212
:10055A0051FFAEF0D39DEE9C403B8E2E8F2FE52DA2
:10056A0025E0FFE52C338F82F583120251FDE52B3E
:10057A0025E0FFE52A338F82F583E5F08DF012023C
:10058A0089E52D25E0FFE52C338F82F583E52E855D
:10059A002FF0120289052DE52D708A052C8086051B
:0D05AA002BE52B600302050F052A02050F4B
:0105B7002221
:1006F200E4F53C120739E53C25E0240AF8A6060891
:10070200A6077F3C7E0012093F053CE53CC39405E9
:1007120040E17B007A00790A7D05120508E50D2586
:100722000FFFE50C350EFEE5112FFFE5103EFE7CB6
:06073200007D031201FC32
:01073800229E
:10092700209007AD34AF330209BEAD34AF33209109
:08093700030209A412000E22C4
:1008150030B30A30B207AD34AF3302000E20B30A4D
:1008250030B207AD347FC80209BE30B30A20B20723
:080835007DC8AF331209A422B3
:1007B50020B40A20B507AD34AF3302000E30B40AB9
:1007C50020B507AD34AF330209BE20B40A30B507F2
:1007D500AD34AF330209A430B40630B503120A189C
:0107E50022F1
:040644008E1C8F1D5C
:100648001207398E1E8F1FC3E51F951DE51E951CC9
:10065800502DC2A3120A187F3C7E0012093F1207D0
:10066800398E1E8F1FC3E51F951DE51E951C40E2A0
:10067800D2A320B32320B2207D507F50020997E4F3
:10068800F51EF51F120815051FE51F7002051EC38C
:080698009408E51E940740ECF4
:0106A0002237
:0406A1008E218F22F5
:1006A5001207398E238F24C3E5249522E52395214E
:1006B5005021C2A3120A187F3C7E0012093F12077F
:1006C500398E238F24C3E5249522E523952140E225
:1006D500D2A322E4F523F5241207B50524E52470F9
:0C06E500020523C39408E523940740ECB1
:0106F10022E6
:1002C4001207398E398F3AC3E53A942CE5399401F3
:1002D40040030204397B44E4FDFF120A0EAF3AAE38
:1002E40039120453120A187F647E0012093F12085F
:1002F400881206F28E168F177B4CE4FDFF120A0E4D
:10030400AF17AE161204537F647E0012093F120821
:10031400AB1206F28E088F097B52E4FDFF120A0E1F
:10032400AF09AE081204537F647E0012093F12081D
:10033400651206F28E148F157B46E4FDFF120A0E39
:10034400AF15AE141204537F647E0012093FC3E557
:10035400159464E51494005050C3E5179464E516AD
:1003640094005045C3E5099464E5089400503A7D2F
:10037400FF7FFF1209B17F327E0012093F12086528
:100384001206F28E398F3A7B44E4FDFF120A0EAF57
:100394003AAE391204537F647E0012093FC3E53A32
:1003A40094C8E539940040C722D3E5179509E516AA
:1003B4009508401F7B4CE4FDFF120A0EAF17AE16E2
:1003C4001204537F647E0012093F7DFF7FFF1209F0
:1003D400B18028D3E5099517E508951640247B528A
:1003E400E4FDFF120A0EAF09AE081204537F647EC7
:1003F4000012093F7DFF7FFF1209CB7F507E000270
:10040400093FD3E5159517E51495164041D3E51535
:100414009509E514950840367B46E4FDFF120A0E63
:10042400AF15AE141204537F647E0012093FAD343D
:10043400AF3302000EE4F539F53A120927053AE51F
:0E0444003A70020539C39408E539940740EC7C
:010452002287
:10086500C2AFE4F521D2A7120A2AC2A71209F005E0
:1008750021C3E5216480948A40EBD2AF7F207E03BB
:0308850002093F26
:10088800C2AFE4F53DD2A7120A3CC2A7120A33054B
:100898003DC3E53D6480948A40EBD2AF7F207E0360
:0308A80002093F03
:1008AB00C2AFE4F53ED2A71209FAC2A7120A040599
:1008BB003EC3E53E6480948A40EBD2AF7F207E033B
:0308CB0002093FE0
:100956007580FFC2B5D2B6D2B4AF80C2B4EF20E77D
:01096600F69A
:01096700226D
:10096800AE07120956C2B5C2B68E80D2B4C2B4223E
:10097800AE07120956D2B5C2B68E80D2B4C2B4221E
:0C09E400ED6003430740430780020968F0
:0A0A0E00AC031209E4AF04020978FA
:10083D008B308A3189321209E4AB30AA31A93212D8
:10084D0001E360130532E5327002053114F912012E
:08085D00E3FF12097880E2229A
:10001E00EC4D6011E8497017ED33EC3304600DE4DC
:10002E00FCFFFEFD22E933E8330470F80201CE1224
:10003E00019958046009E4CC248150062850090225
:10004E0001D82840030201D5C0E0EB4A7044B980C4
:10005E0006D0E0FB0201C4EF4E701CBD8008EBFF22
:10006E00EAFEE9FD80EBE98DF0A4FEE5F002010762
:10007E00E9CDF9EAFEEBFFEF89F0A4FCE5F0CE89BD
:10008E00F0A42EFFE435F0CD89F0A42DFEE435F07A
:10009E008067EF4E7005BD80D780C3EF8BF0A4ACA8
:1000AE00F0EE8BF0A42CFCE435F0F8EF8AF0A42CE3
:1000BE00E5F038FCE433CB8DF0A42CFCE5F03BF8F6
:1000CE00EE8AF0A42CFCE5F038F8E433CF89F0A4E6
:1000DE002CFCE5F038CF3400CE89F0A42FFFE5F0EC
:1000EE003EFEE433C98DF0A42EFEE5F039CD8AF044
:1000FE00A42FFFE5F03EFEE43DFD33D0E0FB5007BC
:10010E000BBB000F0201D8EC2CFCEF33FFEE33FEDD
:06011E00ED33FD0201B00B
:1001240075F020800E75F010800575F0087D007E56
:10013400007F003392D530D5031202B6EC33401061
:10014400EF33FFEE33FEED33FDEC33FCD5F0ED225F
:0E015400E5F0247EA2D513CC92E7CDCEFF229B
:10016200EDD2E7CD33EC3392D524814006E4FFFE95
:10017200FDFC22FCE4CFCECDCC24E0501174FF80F4
:10018200EDC3CC13CCCD13CDCE13CECF13CF047091
:07019200F030D5DE0202B6D9
:10019900E9D2E7C933E833F892D5EDD2E7CD33ECAC
:0701A90033FC5002B2D52225
:1001B000EC30E7100FBF000C0EBE00080DBD0004B0
:1001C0000BEB6014A2D5EB13FCED92E7FD2274FF5C
:1001D000FCFDFEFF22E480F8A2D574FF13FC7D80B5
:0301E000E480EFC9
:030000000205B83E
:0C05B800787FE4F6D8FD75813E0205FF57
:1001E300BB010689828A83E0225002E722BBFE021A
:0901F300E32289828A83E493224D
:1001FC00BC000BBE0029EF8DF084FFADF022E4CCE7
:10020C00F875F008EF2FFFEE33FEEC33FCEE9DECAF
:10021C00984005FCEE9DFE0FD5F0E9E4CEFD22EDF5
:10022C00F8F5F0EE8420D21CFEADF075F008EF2F3F
:10023C00FFED33FD4007985006D5F0F222C398FD30
:05024C000FD5F0EA22CD
:10025100BB0110E58229F582E5833AF583E0F5F0EB
:10026100A3E0225009E92582F886F008E622BBFEC8
:100271000AE92582F8E2F5F008E222E5832AF5830E
:08028100E993F5F0A3E99322D3
:10028900F8BB0111E58229F582E5833AF583E8F0A7
:10029900E5F0A3F0225009E92582C8F608A6F02264
:0D02A900BBFE09E92582C8F2E5F008F2224B
:0E02B600C3E49FFFE49EFEE49DFDE49CFC2259
:1005C4000208EDE493A3F8E493A34003F68001F258
:1005D40008DFF48029E493A3F85407240CC8C33338
:1005E400C4540F4420C8834004F456800146F6DF07
:1005F400E4800B01020408102040809008CEE47EC1
:10060400019360BCA3FF543F30E509541FFEE493FB
:10061400A360010ECF54C025E060A840B8E493A3C2
:10062400FAE493A3F8E493A3C8C582C8CAC583CAED
:10063400F0A3C8C582C8CAC583CADFE9DEE780BEA5
:0108EC00000B
:00000001FF
