:1000450020B0FD7F057E0012006120B0F330B0FDC9
:0C005500C2A37FC87E00120061D2A3226B
:100078007508967509961200031200B6120045120B
:04008800008C80FB6D
:0D009C008F0B8D0AC292D293D296C297228A
:0D00A9008F0B8D0AC292D293C296C297228D
:05000300D2A9D2AF22DA
:0C00B600438902758CA4758AA4D28C22A8
:03000B0002000EE2
:10000E00C0E0C0D0E50CB4FF03750C00E50AC39543
:10001E000C4002D295E50BC3950C4002D294E50B31
:10002E00C3950C5002C294E50AC3950C5002C295BA
:07003E00050CD0D0D0E03228
:100061007D737C00ED1D70011C144C70F7EF1F7047
:06007100011E144E70EAAE
:010077002266
:10008C00AD0920B4057F640200A9AF0812009C22C0
:030000000200C239
:0C00C200787FE4F6D8FD75810C02007810
:00000001FF
