:1000930020B0FD7F057E001200AF20B0F330B0FD2D
:0C00A300C2A37FC87E001200AFD2A322CF
:1000C60075089675099612000312011B1200931209
:0400D600000E80FB9D
:0D00DA008F0B8D0AC292D293D296C297224C
:0D00E7008F0B8D0AD292C293C296D297223F
:0D00F4008F0B8D0AC292C293D296C2972242
:0D0101008F0B8D0AD292C293D296C2972224
:0D010E008F0B8D0AC292D293C296C2972227
:09013300C292C293C296C2972247
:05000300D2A9D2AF22DA
:0C011B00438902758CA4758AA4D28C2242
:03000B0002005C94
:10005C00C0E0C0D0E50CB4FF03750C00E50AC395F5
:10006C000C4002D295E50BC3950C4002D294E50BE3
:10007C00C3950C5002C294E50AC3950C5002C2956C
:07008C00050CD0D0D0E032DA
:1000AF007D737C00ED1D70011C144C70F7EF1F70F9
:0600BF00011E144E70EA60
:0100C5002218
:10000E0020B40A30B507AD09AF0802010E30B40AAC
:10001E0020B507AD09AF080200F420B42920B5269B
:10002E001201337F647E001200AFAD09AF081200DB
:10003E00E77F327E001200AFAD09AF081201017FDB
:0E004E00327E000200AFAD09AF081200DA22C8
:03000000020127D3
:0C012700787FE4F6D8FD75810C0200C65C
:00000001FF
