:10082B00506C6561736520707265737320746865B5
:0D083B0000533220746F20737461727400DA
:1008480020B0FD7F057E0012087C20B0F330B0FD9B
:0C085800C2A37FC87E0012087CD2A3223D
:1006D800751C96751D9612000312091C12096512E5
:1006E80008931207A37BFF7A08792BE4FDFF120712
:1006F8007B7BFF7A08793C7D01E4FF12077B1208B7
:0D070800481209937F2C7E011202C480F775
:0D000E008F1F8D1EC292D293D296C29722F0
:0D08E8008F1F8D1EC292C293D296C297221E
:0D08F5008F1F8D1ED292C293D296C2972201
:0D0902008F1F8D1EC292D293C296C2972203
:0D090F008F1F8D1EC292D293C296D29722E6
:09095C00C292C293C296C2972216
:07000300D2A9D2ABD2AF225B
:0C091C00438902758CA4758AA4D28C2239
:09096500438910E4F58DF58B22A5
:03000B00020715D4
:10071500C0E0C0D0052DE52DB4FF03752D00E51E05
:10072500C3952D4002D295E51FC3952D4002D29465
:10073500E51FC3952D5002C294E51EC3952D5002A9
:07074500C295D0D0D0E032D4
:03001B000209894E
:05098900D200C2A03203
:10087C007D737C00ED1D70011C144C70F7EF1F7024
:06088C00011E144E70EA8B
:010892002243
:04098E007F04DFFE05
:010992002242
:08096E007F037EC4DEFEDFFC06
:01097600225E
:09093400007F227E10DEFEDFFCD4
:01093D002297
:09093E00007F027E0FDEFEDFFCEB
:01094700228D
:09094800007F237EC5DEFEDFFC0A
:010951002283
:080977007F207E5DDEFEDFFC47
:01097F002255
:080980007F057E78DEFEDFFC3E
:01098800224C
:1008A7007580FFC2B5D2B6D2B4AF80C2B4EF20E72D
:0108B700F64A
:0108B800221D
:1008B900AE071208A7C2B5C2B68E80D2B4C2B4229E
:1008C900AE071208A7D2B5C2B68E80D2B4C2B4227E
:050993007F010208B91C
:0C092800ED60034307404307800208B95C
:0A095200AC03120928AF040208C923
:10077B008B278A288929120928AB27AA28A929128D
:10078B0001E360130529E5297002052814F912010C
:08079B00E3FF1208C980E2220D
:100893007F381208B97F0C1208B97F061208B97F96
:0408A300010208B98D
:0F08D900C2A10000000000D2A112098EC2A1220C
:10064800E4F526F527F528F529C2A91208D930A01E
:10065800FDD28E20A0FDC28ED2A9AF8DEFFEAD8B4C
:100668007C00E42DF529EC3EF528E4F58DF58BACFE
:1006780028AD291201297B777AE0793C783E12006F
:080688001E1201628E268F276D
:010690002247
:10074C00212121204F7574206F662072616E6765C0
:10075C000044697374616E63653A30303030204DFB
:0F076C004D003031323334353637383900000024
:10080C000418000000000216000002080000021488
:0E081C0000000A0A00000000000000000000BA
:100457008E258F26C3E5269488E52594135003300F
:10046700000FC2007BFF7A07794C7D01E4FF02078A
:100477007BAE25AF267C037DE81201FC8F18AE25E5
:10048700AF267C037DE81201FC7E007F64CFCDCFD1
:10049700CECCCE1201FC8F19AE25AF267C007D6431
:1004A7001201FC7E007F0ACFCDCFCECCCE1201FC4D
:1004B7008F1AAE25AF267C007D0A1201FC8D1B7BAF
:1004C700FF7A07795D7D01E4FF12077BE518900746
:1004D7006E93FB7D017F09120952E51990076E9310
:1004E700FB7D017F0A120952E51A90076E93FB7D87
:1004F700017F0B120952E51B90076E93FB7D017F6D
:050507000C1209522254
:02050C008D263A
:10050E00E4F527F528E52624FFFFE434FFFEC3E5D6
:10051E00289FE5279E40030205BBE5282401F52A06
:10052E00E43527F529C3E52A9526E5299400506F71
:10053E00E52A25E0FFE529338F82F583120251FD6E
:10054E00ACF0E52825E0FFE527338F82F583120214
:10055E0051FFAEF0D39DEE9C403B8E2B8F2CE52AA7
:10056E0025E0FFE529338F82F583120251FDE52840
:10057E0025E0FFE527338F82F583E5F08DF012023B
:10058E0089E52A25E0FFE529338F82F583E52B8562
:10059E002CF0120289052AE52A708A052980860523
:0D05AE0028E5286003020513052702051348
:0105BB00221D
:10069100E4F525120648E52525E0240AF8A6060812
:1006A100A6077F3C7E0012087C0525E525C394053D
:1006B10040E17B007A00790A7D0512050CE50D25E4
:1006C1000FFFE50C350EFEE5112FFFE5103EFE7C18
:0606D100007D031201FC94
:0106D7002200
:10086400209007AD1DAF1C020902AD1DAF1C2091E5
:08087400030208E812000E2245
:0402C4008E218F22D6
:1002C8001206488E238F24C3E5249522E523952121
:1002D800400302043D7B44E4FDFF120952AF24AE03
:1002E8002312045712095C7F647E0012087C1207EF
:1002F800C61206918E168F177B4CE4FDFF12095229
:10030800AF17AE161204577F647E0012087C1207DE
:10031800E91206918E088F097B52E4FDFF120952FB
:10032800AF09AE081204577F647E0012087C1207DA
:10033800A31206918E148F157B46E4FDFF12095215
:10034800AF15AE141204577F647E0012087CC3E513
:10035800159464E51494005050C3E5179464E516A9
:1003680094005045C3E5099464E5089400503A7D2B
:10037800FF7FFF1208F57F327E0012087C1207A368
:100388001206918E238F247B44E4FDFF120952AF9D
:1003980024AE231204577F647E0012087CC3E52430
:1003A80094C8E523940040C722D3E5159517E514B2
:1003B80095164028D3E5159509E5149508401D7B49
:1003C80046E4FDFF120952AF15AE141204577F64BC
:1003D8007E0012087CAD1DAF1C02000ED3E51795F8
:1003E80009E5169508401F7B4CE4FDFF120952AF42
:1003F80017AE161204577F647E0012087C7DFF7FBB
:10040800FF1208F58028D3E5099517E508951640E9
:100418003D7B52E4FDFF120952AF09AE08120457A2
:100428007F647E0012087C7DFF7FFF12090F7F50DA
:100438007E0002087CE4F523F5241208640524E50F
:0E0448002470020523C39408E523940740ECBA
:010456002283
:1007A300C2AFE4F525D2A712096EC2A71209340518
:1007B30025C3E5256480948A40EBD2AF7F647E0035
:0307C30002087CAD
:1007C600C2AFE4F525D2A7120980C2A712097705A0
:1007D60025C3E5256480948A40EBD2AF7F647E0012
:0307E60002087C8A
:1007E900C2AFE4F525D2A712093EC2A712094805EE
:1007F90025C3E5256480948A40EBD2AF7F647E00EF
:0308090002087C66
:10001E00EC4D6011E8497017ED33EC3304600DE4DC
:10002E00FCFFFEFD22E933E8330470F80201CE1224
:10003E00019958046009E4CC248150062850090225
:10004E0001D82840030201D5C0E0EB4A7044B980C4
:10005E0006D0E0FB0201C4EF4E701CBD8008EBFF22
:10006E00EAFEE9FD80EBE98DF0A4FEE5F002010762
:10007E00E9CDF9EAFEEBFFEF89F0A4FCE5F0CE89BD
:10008E00F0A42EFFE435F0CD89F0A42DFEE435F07A
:10009E008067EF4E7005BD80D780C3EF8BF0A4ACA8
:1000AE00F0EE8BF0A42CFCE435F0F8EF8AF0A42CE3
:1000BE00E5F038FCE433CB8DF0A42CFCE5F03BF8F6
:1000CE00EE8AF0A42CFCE5F038F8E433CF89F0A4E6
:1000DE002CFCE5F038CF3400CE89F0A42FFFE5F0EC
:1000EE003EFEE433C98DF0A42EFEE5F039CD8AF044
:1000FE00A42FFFE5F03EFEE43DFD33D0E0FB5007BC
:10010E000BBB000F0201D8EC2CFCEF33FFEE33FEDD
:06011E00ED33FD0201B00B
:1001240075F020800E75F010800575F0087D007E56
:10013400007F003392D530D5031202B6EC33401061
:10014400EF33FFEE33FEED33FDEC33FCD5F0ED225F
:0E015400E5F0247EA2D513CC92E7CDCEFF229B
:10016200EDD2E7CD33EC3392D524814006E4FFFE95
:10017200FDFC22FCE4CFCECDCC24E0501174FF80F4
:10018200EDC3CC13CCCD13CDCE13CECF13CF047091
:07019200F030D5DE0202B6D9
:10019900E9D2E7C933E833F892D5EDD2E7CD33ECAC
:0701A90033FC5002B2D52225
:1001B000EC30E7100FBF000C0EBE00080DBD0004B0
:1001C0000BEB6014A2D5EB13FCED92E7FD2274FF5C
:1001D000FCFDFEFF22E480F8A2D574FF13FC7D80B5
:0301E000E480EFC9
:030000000205BC3A
:0C05BC00787FE4F6D8FD75812D0206035F
:1001E300BB010689828A83E0225002E722BBFE021A
:0901F300E32289828A83E493224D
:1001FC00BC000BBE0029EF8DF084FFADF022E4CCE7
:10020C00F875F008EF2FFFEE33FEEC33FCEE9DECAF
:10021C00984005FCEE9DFE0FD5F0E9E4CEFD22EDF5
:10022C00F8F5F0EE8420D21CFEADF075F008EF2F3F
:10023C00FFED33FD4007985006D5F0F222C398FD30
:05024C000FD5F0EA22CD
:10025100BB0110E58229F582E5833AF583E0F5F0EB
:10026100A3E0225009E92582F886F008E622BBFEC8
:100271000AE92582F8E2F5F008E222E5832AF5830E
:08028100E993F5F0A3E99322D3
:10028900F8BB0111E58229F582E5833AF583E8F0A7
:10029900E5F0A3F0225009E92582C8F608A6F02264
:0D02A900BBFE09E92582C8F2E5F008F2224B
:0E02B600C3E49FFFE49EFEE49DFDE49CFC2259
:1005C8000206D8E493A3F8E493A34003F68001F26B
:1005D80008DFF48029E493A3F85407240CC8C33334
:1005E800C4540F4420C8834004F456800146F6DF03
:1005F800E4800B010204081020408090080CE47E7F
:10060800019360BCA3FF543F30E509541FFEE493F7
:10061800A360010ECF54C025E060A840B8E493A3BE
:10062800FAE493A3F8E493A3C8C582C8CAC583CAE9
:10063800F0A3C8C582C8CAC583CADFE9DEE780BEA1
:01082A0000CD
:00000001FF
