:1000760020B0FD7F057E0012009220B0F330B0FD67
:0C008600C2A37FC87E00120092D2A32209
:1000A9007508967509961200031200E4120076127B
:0400B900004580FB83
:0D00BD008F0B8D0AC292D293D296C2972269
:0D00CA008F0B8D0AC292C293D296C297226C
:0D00D7008F0B8D0AC292D293C296C297225F
:0900FC00C292C293C296C297227F
:05000300D2A9D2AF22DA
:0C00E400438902758CA4758AA4D28C227A
:03000B0002000EE2
:10000E00C0E0C0D0E50CB4FF03750C00E50AC39543
:10001E000C4002D295E50BC3950C4002D294E50B31
:10002E00C3950C5002C294E50AC3950C5002C295BA
:07003E00050CD0D0D0E03228
:100092007D737C00ED1D70011C144C70F7EF1F7016
:0600A200011E144E70EA7D
:0100A8002235
:1000450020B40A20B507AD09AF080200BD30B40AD7
:1000550020B507AD09AF080200D720B40A30B507AF
:10006500AD09AF080200CA30B40630B5031200FC72
:010075002268
:030000000200F00B
:0C00F000787FE4F6D8FD75810C0200A9B1
:00000001FF
