:10000300E4F508D2A71200C0C2A71200A20508C3D4
:0F001300E5086480948A40EB7F207E0302006042
:10002200E4F508D2A71200D2C2A71200C90508C37C
:0F003200E5086480948A40EB7F207E0302006023
:10004100E4F508D2A71200ACC2A71200B60508C396
:0F005100E5086480948A40EB7F207E0302006004
:10006000D3EF9400EE940040147D727C00ED1D707F
:0D007000011CED4C70F7EF1F70E61E80E3E1
:01007D002260
:0800C0007F037EC4DEFEDFFCBD
:0100C8002215
:0900A200007F227E10DEFEDFFC6F
:0100AB002232
:0900AC00007F027E0FDEFEDFFC86
:0100B5002228
:0900B600007F237EC5DEFEDFFCA5
:0100BF00221E
:0800C9007F207E5DDEFEDFFCFE
:0100D100220C
:0800D2007F057E78DEFEDFFCF5
:0100DA002203
:10007E001200037FE87E03120060120022120003BA
:08008E0012004112000380F290
:0300000002009665
:0C009600787FE4F6D8FD75810802007E3A
:00000001FF
