:10000E001200031202227D827F641201D47FD07E01
:10001E00071201BD7D827F641201E17FD07E07123F
:10002E0001BDE4F50B7D827F641201D47FC87E0092
:10003E001201BD12023A7FC87E001201BD050BE50A
:10004E000BC3940840DFE4F50B7D827F641201E15F
:10005E007FC87E001201BD12023A7FC87E001201D7
:10006E00BD050BE50BC3940840DFE4F50B7D827FE5
:10007E00641201EE7F907E011201BD12023A7FC81A
:10008E007E001201BD7D827F641202157FC87E0044
:10009E001201BD12023A7FC87E001201BD050BE5AA
:1000AE000BC3940840C7E4F50B7D827F64120208EF
:1000BE007F907E011201BD12023A7FC87E001201AE
:1000CE00BD7D827F641201FB7FC87E001201BD12CE
:1000DE00023A7FC87E001201BD050BE50BC39408E2
:1000EE0040C7E4F50B7D827F641201D47F907E01C0
:1000FE001201BD12023A7FC87E001201BD7D827FC1
:10010E00641201EE7FC87E001201BD12023A7FC852
:10011E007E001201BD050BE50BC3940840C7E4F544
:10012E000B7D827F641201D47F907E011201BD127D
:10013E00023A7FC87E001201BD7D827F64120208E2
:10014E007FC87E001201BD12023A7FC87E001201E6
:10015E00BD050BE50BC3940840C77D3C7FFF120124
:10016E00D47F107E271201BD12023AC2A37FE87E11
:08017E00031201BDD2A380FEB3
:0D01D4008F098D08C292D293D296C2972255
:0D01E1008F098D08D292C293C296D2972248
:0D01EE008F098D08C292C293D296C297224B
:0D01FB008F098D08D292C293D296C297222E
:0D0208008F098D08C292D293C296C2972230
:0D0215008F098D08C292D293C296D2972213
:09023A00C292C293C296C297223F
:05000300D2A9D2AF22DA
:0C022200438902758CA4758AA4D28C223A
:03000B0002018669
:10018600C0E0C0D0050AE50AB4FF03750A00E50819
:10019600C3950A4002D295E509C3950A4002D29456
:1001A600E509C3950A5002C294E508C3950A5002B0
:0701B600C295D0D0D0E03269
:1001BD007D737C00ED1D70011C144C70F7EF1F70EA
:0601CD00011E144E70EA51
:0101D3002209
:0300000002022ECB
:0C022E00787FE4F6D8FD75810B02000E0D
:00000001FF
