:10006C0020B0FD7F057E0012008820B0F330B0FD7B
:0C007C00C2A37FC87E00120088D2A3221D
:100045001200031200ED12006C7D827F6412009F86
:100055007FD07E07120088C2A37FC87E0012008869
:07006500D2A312010580FE89
:0D009F008F098D08C292D293D296C297228B
:0D00AC008F098D08D292C293C296D297227E
:0D00B9008F098D08C292C293D296C2972281
:0D00C6008F098D08D292C293D296C2972264
:0D00D3008F098D08C292D293C296C2972267
:0D00E0008F098D08C292D293C296D297224A
:09010500C292C293C296C2972275
:05000300D2A9D2AF22DA
:0C00ED00438902758CA4758AA4D28C2271
:03000B0002000EE2
:10000E00C0E0C0D0050AE50AB4FF03750A00E50892
:10001E00C3950A4002D295E509C3950A4002D294CF
:10002E00E509C3950A5002C294E508C3950A500229
:07003E00C295D0D0D0E032E2
:100088007D737C00ED1D70011C144C70F7EF1F7020
:06009800011E144E70EA87
:01009E00223F
:030000000200F902
:0C00F900787FE4F6D8FD75810A0200450E
:00000001FF
