:1008040020B0FD7F057E0012085320B0F330B0FD08
:0C081400C2A37FC87E00120853D2A322AA
:1007E600752E78752F781200031209001209491226
:0E07F600075E1208047FC87E0012082080F7FC
:0D000E008F318D30C292D293D296C29722CC
:0D08BF008F318D30D292C293C296D2972213
:0D08CC008F318D30C292C293D296C2972216
:0D08D9008F318D30D292C293D296C29722F9
:0D08E6008F318D30C292D293C296C29722FC
:0D08F3008F318D30C292D293C296D29722DF
:09094000C292C293C296C2972232
:07000300D2A9D2ABD2AF225B
:0C090000438902758CA4758AA4D28C2255
:09094900438910E4F58DF58B22C1
:03000B000206D01A
:1006D000C0E0C0D0051FE51FB4FF03751F00E53063
:1006E000C3951F4002D295E531C3951F4002D294B5
:1006F000E531C3951F5002C294E530C3951F5002E7
:07070000C295D0D0D0E03219
:03001B0002096D6A
:05096D00D200C2A0321F
:100853007D737C00ED1D70011C144C70F7EF1F704D
:06086300011E144E70EAB4
:01086900226C
:040972007F04DFFE21
:01097600225E
:080952007F037EC4DEFEDFFC22
:01095A00227A
:09091800007F227E10DEFEDFFCF0
:0109210022B3
:09092200007F027E0FDEFEDFFC07
:01092B0022A9
:09092C00007F237EC5DEFEDFFC26
:01093500229F
:08095B007F207E5DDEFEDFFC63
:010963002271
:080964007F057E78DEFEDFFC5A
:01096C002268
:10087E007580FFC2B5D2B6D2B4AF80C2B4EF20E756
:01088E00F673
:01088F002246
:10089000AE0712087EC2B5C2B68E80D2B4C2B422F0
:1008A000AE0712087ED2B5C2B68E80D2B4C2B422D0
:0C090C00ED6003430740430780020890A1
:0A093600AC0312090CAF040208A084
:100736008B1C8A1D891E12090CAB1CAA1DA91E1230
:1007460001E36013051EE51E7002051D14F9120172
:08075600E3FF1208A080E2227B
:10086A007F381208907F0C1208907F061208907F3A
:04087A0001020890DF
:0F08B000C2A10000000000D2A1120972C2A12251
:10068B00E4F52AF52BF52CF52D1208B030A0FDD290
:10069B008E20A0FDC28EAF8DEFFEAD8B7C00E42DC6
:1006AB00F52DEC3EF52CE4F58DF58BAC2CAD2D1228
:1006BB0001297B777AE0793C783E12001E120162A9
:0406CB008E2A8F2BB9
:0106CF002208
:10070700212121204F7574206F662072616E676505
:100717000044697374616E63653A30303030204D40
:0F0727004D003031323334353637383900000069
:1007C70004180000000002160000020800000214CE
:0E07D70000000A0A0000000000000000000000
:100453008E328F33C3E5339488E5329413500330DF
:10046300000FC2007BFF7A0779077D01E4FF0207D3
:1004730036AE32AF337C037DE81201FC8F18AE3207
:10048300AF337C037DE81201FC7E007F64CFCDCFC8
:10049300CECCCE1201FC8F19AE32AF337C007D641B
:1004A3001201FC7E007F0ACFCDCFCECCCE1201FC51
:1004B3008F1AAE32AF337C007D0A1201FC8D1B7B99
:1004C300FF7A0779187D01E4FF120736E5189007D4
:1004D3002993FB7D017F09120936E51990072993BA
:1004E300FB7D017F0A120936E51A90072993FB7DEC
:1004F300017F0B120936E51B90072993FB7D017FD2
:050503000C1209362274
:020508008D2143
:10050A00E4F522F523E52124FFFFE434FFFEC3E5E9
:10051A00239FE5229E40030205B7E5232401F52522
:10052A00E43522F524C3E5259521E5249400506F8E
:10053A00E52525E0FFE524338F82F583120251FD7C
:10054A00ACF0E52325E0FFE522338F82F583120222
:10055A0051FFAEF0D39DEE9C403B8E268F27E525BA
:10056A0025E0FFE524338F82F583120251FDE5234E
:10057A0025E0FFE522338F82F583E5F08DF0120244
:10058A0089E52525E0FFE524338F82F583E5268575
:10059A0027F01202890525E525708A05248086053B
:0D05AA0023E523600302050F052202050F63
:0105B7002221
:10064400E4F53612068BE53625E0240AF8A60608FA
:10065400A6077F3C7E001208530536E536C3940591
:1006640040E17B007A00790A7D05120508E50D2535
:100674000FFFE50C350EFEE5112FFFE5103EFE7C65
:06068400007D031201FCE1
:01068A00224D
:10083B00209007AD2FAF2E0208E6AD2FAF2E2091E3
:08084B00030208CC12000E228A
:040820008E288F2966
:1008240012068BD3EF9529EE9528AD2FAF2E4003FA
:0608340002000E1208BFD5
:01083A00229B
:1002C40012068B8E348F35C3E535942CE5349401B6
:1002D40040030204397B44E4FDFF120936AF35AE16
:1002E400341204531209407F647E0012085312072B
:1002F400811206448E168F177B4CE4FDFF120936DB
:10030400AF17AE161204537F647E0012085312070F
:10031400A41206448E088F097B52E4FDFF120936AD
:10032400AF09AE081204537F647E0012085312070B
:100334005E1206448E148F157B46E4FDFF120936C7
:10034400AF15AE141204537F647E00120853C3E544
:10035400159464E51494005050C3E5179464E516AD
:1003640094005045C3E5099464E5089400503A7D2F
:10037400FF7FFF1208D97F327E0012085312075EF6
:100384001206448E348F357B44E4FDFF120936AFE8
:1003940035AE341204537F647E00120853C3E5352E
:1003A40094C8E534940040C722D3E5179509E516AF
:1003B4009508401F7B4CE4FDFF120936AF17AE16BB
:1003C4001204537F647E001208537DFF7FFF1208DE
:1003D400D98028D3E5099517E508951640247B5262
:1003E400E4FDFF120936AF09AE081204537F647EA0
:1003F400001208537DFF7FFF1208F37F507E000236
:100404000853D3E5159517E51495164041D3E51522
:100414009509E514950840367B46E4FDFF1209363C
:10042400AF15AE141204537F647E00120853AD2F2F
:10043400AF2E02000EE4F534F53512083B0535E520
:0E0444003570020534C39408E534940740EC8B
:010452002287
:10075E00C2AFE4F528D2A7120952C2A71209180592
:10076E0028C3E5286480948A40EBD2AF7F207E03B5
:03077E000208531B
:10078100C2AFE4F537D2A7120964C2A712095B050B
:1007910037C3E5376480948A40EBD2AF7F207E0374
:0307A100020853F8
:1007A400C2AFE4F538D2A7120922C2A712092C0558
:1007B40038C3E5386480948A40EBD2AF7F207E034F
:0307C400020853D5
:10001E00EC4D6011E8497017ED33EC3304600DE4DC
:10002E00FCFFFEFD22E933E8330470F80201CE1224
:10003E00019958046009E4CC248150062850090225
:10004E0001D82840030201D5C0E0EB4A7044B980C4
:10005E0006D0E0FB0201C4EF4E701CBD8008EBFF22
:10006E00EAFEE9FD80EBE98DF0A4FEE5F002010762
:10007E00E9CDF9EAFEEBFFEF89F0A4FCE5F0CE89BD
:10008E00F0A42EFFE435F0CD89F0A42DFEE435F07A
:10009E008067EF4E7005BD80D780C3EF8BF0A4ACA8
:1000AE00F0EE8BF0A42CFCE435F0F8EF8AF0A42CE3
:1000BE00E5F038FCE433CB8DF0A42CFCE5F03BF8F6
:1000CE00EE8AF0A42CFCE5F038F8E433CF89F0A4E6
:1000DE002CFCE5F038CF3400CE89F0A42FFFE5F0EC
:1000EE003EFEE433C98DF0A42EFEE5F039CD8AF044
:1000FE00A42FFFE5F03EFEE43DFD33D0E0FB5007BC
:10010E000BBB000F0201D8EC2CFCEF33FFEE33FEDD
:06011E00ED33FD0201B00B
:1001240075F020800E75F010800575F0087D007E56
:10013400007F003392D530D5031202B6EC33401061
:10014400EF33FFEE33FEED33FDEC33FCD5F0ED225F
:0E015400E5F0247EA2D513CC92E7CDCEFF229B
:10016200EDD2E7CD33EC3392D524814006E4FFFE95
:10017200FDFC22FCE4CFCECDCC24E0501174FF80F4
:10018200EDC3CC13CCCD13CDCE13CECF13CF047091
:07019200F030D5DE0202B6D9
:10019900E9D2E7C933E833F892D5EDD2E7CD33ECAC
:0701A90033FC5002B2D52225
:1001B000EC30E7100FBF000C0EBE00080DBD0004B0
:1001C0000BEB6014A2D5EB13FCED92E7FD2274FF5C
:1001D000FCFDFEFF22E480F8A2D574FF13FC7D80B5
:0301E000E480EFC9
:030000000205B83E
:0C05B800787FE4F6D8FD7581380205FF5D
:1001E300BB010689828A83E0225002E722BBFE021A
:0901F300E32289828A83E493224D
:1001FC00BC000BBE0029EF8DF084FFADF022E4CCE7
:10020C00F875F008EF2FFFEE33FEEC33FCEE9DECAF
:10021C00984005FCEE9DFE0FD5F0E9E4CEFD22EDF5
:10022C00F8F5F0EE8420D21CFEADF075F008EF2F3F
:10023C00FFED33FD4007985006D5F0F222C398FD30
:05024C000FD5F0EA22CD
:10025100BB0110E58229F582E5833AF583E0F5F0EB
:10026100A3E0225009E92582F886F008E622BBFEC8
:100271000AE92582F8E2F5F008E222E5832AF5830E
:08028100E993F5F0A3E99322D3
:10028900F8BB0111E58229F582E5833AF583E8F0A7
:10029900E5F0A3F0225009E92582C8F608A6F02264
:0D02A900BBFE09E92582C8F2E5F008F2224B
:0E02B600C3E49FFFE49EFEE49DFDE49CFC2259
:1005C4000207E6E493A3F8E493A34003F68001F260
:1005D40008DFF48029E493A3F85407240CC8C33338
:1005E400C4540F4420C8834004F456800146F6DF07
:1005F400E4800B01020408102040809007C7E47EC9
:10060400019360BCA3FF543F30E509541FFEE493FB
:10061400A360010ECF54C025E060A840B8E493A3C2
:10062400FAE493A3F8E493A3C8C582C8CAC583CAED
:10063400F0A3C8C582C8CAC583CADFE9DEE780BEA5
:0107E5000013
:00000001FF
