:10000300E4F50AD2A71200B4C2A7120096050AC3E8
:0F001300E50A6480948A40EB7F207E0302006040
:10002200E4F508D2A71200C6C2A71200BD0508C394
:0F003200E5086480948A40EB7F207E0302006023
:10004100E4F509D2A71200A0C2A71200AA0509C3AC
:0F005100E5096480948A40EB7F207E0302006003
:0700CF007E0A00DEFDDFF9EF
:0100D6002207
:10006000D3EF9400EE940040147D727C00ED1D707F
:0D007000011CED4C70F7EF1F70E61E80E3E1
:01007D002260
:0800B4007F037EC4DEFEDFFCC9
:0100BC002221
:09009600007F227E10DEFEDFFC7B
:01009F00223E
:0900A000007F027E0FDEFEDFFC92
:0100A9002234
:0900AA00007F237EC5DEFEDFFCB1
:0100B300222A
:0800BD007F207E5DDEFEDFFC0A
:0100C5002218
:0800C6007F057E78DEFEDFFC01
:0100CE00220F
:0C007E007FE87E0312006012000380FE89
:0300000002008A71
:0C008A00787FE4F6D8FD75810A02007E44
:00000001FF
