:10094900506C656173652070726573732074686596
:0D09590000533220746F20737461727400BB
:1009660020B0FD7F057E0012098220B0F330B0FD75
:0C097600C2A37FC87E00120982D2A32217
:1007A500120A8C120A24120A9512099912085A7B08
:1007B500FF7A097949E4FDFF12080D7BFF7A097973
:1007C5005A7D01E4FF12080D120966120ADE1206AF
:0607D50001120A8380FE00
:0D000E008F3B8D3AC292D293D296C29722B8
:0D001E008F3B8D3AC292C293D296C29722B8
:0D09FD008F3B8D3AD292C293D296C29722C0
:0D0A0A008F3B8D3AC292D293C296C29722C2
:0D0A17008F3B8D3AC292D293C296D29722A5
:090A8300C292C293C296C29722EE
:090A8C00D2A9D2ABD2ADD2AF2247
:0C0A2400438902758CA4758AA4D28C2230
:090A9500438910E4F58DF58B2274
:03000B0002076E7B
:10076E00C0E0C0D0051FE51FB4FF03751F00E53ABA
:10077E00C3951F4002D295E53BC3951F4002D2940C
:10078E00E53BC3951F5002C294E53AC3951F500234
:07079E00C295D0D0D0E0327B
:03001B00020003DD
:05000300D200C2A03292
:0A0A4700E4F5C9F5C8F5CDF5CC22A1
:03002B00020AD4F2
:050AD400D201C2A432B2
:100982007D737C00ED1D70011C144C70F7EF1F701D
:06099200011E144E70EA84
:01099800223C
:040AD9007F04DFFEB9
:010ADD0022F6
:080A9E007F037EC4DEFEDFFCD5
:010AA600222D
:090A5100007F227E10DEFEDFFCB6
:010A5A002279
:090A5B00007F027E0FDEFEDFFCCD
:010A6400226F
:090A6500007F237EC5DEFEDFFCEC
:010A6E002265
:080AA7007F207E5DDEFEDFFC16
:010AAF002224
:080AB0007F057E78DEFEDFFC0D
:010AB800221B
:080AB9007F027E19DEFEDFFC66
:010AC1002212
:090A6F00007F237EC1DEFEDFFCE6
:010A7800225B
:080AC2007F047E78DEFEDFFCFC
:010ACA002209
:080ACB007F217E5DDEFEDFFCF1
:010AD3002200
:1009AD007580FFC2B5D2B6D2B4AF80C2B4EF20E726
:0109BD00F643
:0109BE002216
:1009BF00AE071209ADC2B5C2B68E80D2B4C2B42290
:1009CF00AE071209ADD2B5C2B68E80D2B4C2B42270
:050ADE007F010209BFC9
:0C0A3000ED60034307404307800209BF4C
:0A0A7900AC03120A30AF040209CFEB
:10080D008B138A148915120A30AB13AA14A9151269
:10081D0001F360130515E5157002051414F91201A5
:08082D00F3FF1209CF80E22263
:100999007F381209BF7F0C1209BF7F061209BF7F7A
:0409A900010209BF7F
:0F09DF00C2A10000000000D2A1120AD9C2A122B9
:10065600E4F512F513F514F515C2A91209DF30A059
:10066600FDD28E20A0FDC28ED2A9AF8DEFFEAD8B3E
:100676007C00E42DF515EC3EF514E4F58DF58BAC18
:1006860014AD151201397B777AE0793C783E120079
:080696002E1201728E128F1367
:01069E002239
:0F09EE00C2A50000000000D2A5120AD9C2A5229E
:1006E600E4F519F51AF51BF51C1209EE30A4FDD236
:1006F600CA20A4FDC2CAAFCDEFFEADCC7C00E42D6E
:10070600F51CEC3EF51BE4F5CDF5CCAC1BAD1C128F
:1007160001397B777AE0793C783E12002E1201721D
:040726008E198F1A7F
:01072A0022AC
:100449004469723A2046726F6E74202000446972C2
:100459003A204C656674202020004469723A205283
:10046900696768742020004469723A204C65667493
:10047900343520004469723A20526967687434350A
:1004890000212121204F7574206F662072616E67EB
:10049900650044697374616E63653A3030303020A9
:1004A9004D4D00546172676574206C6F636B6564B0
:1004B900210052414D4D494E472121212020202024
:1004C90020004D6561737572696E672E2E2E20208E
:0F04D900200030313233343536373839000000E7
:10092A000436000000000A21000000000000000058
:0E093A0000000A2B0449045604630470047D77
:0B0A3C00858A35E53570037535AA2268
:10083500E535C313FF6535FEE5351313543F6EFEED
:10084500E535131313541F6E5401C43333335480E9
:040855004FF535FF27
:01085900227C
:1002E6008E118F12C3E5129488E5119413500330D2
:1002F600000EC2007BFF7A04798AE4FDFF02080D36
:10030600AE11AF127C037DE812021E8F36AE11AF1E
:10031600127C037DE812021E7E007F64CFCDCFCE15
:10032600CCCE12021E8F37AE11AF127C007D641246
:10033600021E7E007F0ACFCDCFCECCCE12021E8FFC
:1003460038AE11AF127C007D0A12021E8D397BFF7A
:100356007A04799BE4FDFF12080DE5369004DB93E1
:10036600FBE4FD7F09120A79E5379004DB93FBE491
:10037600FD7F0A120A79E5389004DB93FBE4FD7FE2
:100386000B120A79E5399004DB93FBE4FD7F0C122E
:030396000A7922BF
:020399008D12C3
:10039B00E4F513F514E51224FFFFE434FFFEC3E587
:1003AB00149FE5139E4003020448E5142401F5163F
:1003BB00E43513F515C3E5169512E5159400506F4A
:1003CB00E51625E0FFE515338F82F583120273FDE9
:1003DB00ACF0E51425E0FFE513338F82F5831202B1
:1003EB0073FFAEF0D39DEE9C403B8E178F18E51636
:1003FB0025E0FFE515338F82F583120273FDE514BB
:10040B0025E0FFE513338F82F583E5F08DF01202C3
:10041B00ABE51625E0FFE515338F82F583E51785F0
:10042B0018F01202AB0516E516708A0515808605C5
:0D043B0014E51460030203A005130203A0E2
:010448002291
:10069F00E4F511120656E51125E02421F8A6060807
:1006AF00A6077F3C7E001209820511E511C3940550
:1006BF0040E17B007A0079217D05120399E524251D
:1006CF0026FFE5233525FEE5282FFFE5273EFE7C97
:0606DF00007D0312021E63
:0106E50022F2
:10072B008B0E8A0F8910120835EF75F00584AB0E0E
:10073B00AA0FA910E5F012020C120835EF75F0059F
:10074B0084AB11AA12A913E5F012020CAB0EAA0F7F
:10075B00A9101201F3FFAB11AA12A9131201F36F27
:03076B0060D72232
:10090900EF14601014601014601014601024047047
:100919000F02085A02087D0208A00208C31208E65D
:0109290022AB
:0207DB008F0E7F
:1007DD001209097F2C7E01120982E50E25E0242BDA
:1007ED00F8E6FE08E6AA06F97BFF7D01E4FF120894
:0F07FD000D12069F8E0F8F101202E6AE0FAF1077
:01080C0022C9
:1004E8008F0E120ADE7BFF7A0479ACE4FDFF120856
:1004F8000DC2A37FF47E01120982D2A3AF0E1209A6
:10050800097F2C7E01120982E50E24FE6013146017
:100518001B1460232403702D7DB47FB41209FD8061
:10052800077DB47FB4120A177FB480147DB47FB4FA
:100538001209FD7F5A80097DB47FB4120A177F5AC9
:100548007E00120982120A837FC87E001209827B0C
:10055800FF7A0479BB7D01E4FF12080D7DFF7FFF60
:0D05680012000E7FB87E0B120982020A837A
:10060100120A3C7511007512007513097B007A00FE
:10061100790812072B7BFF7A0479CBE4FDFF1208DE
:100621000DAF081207DB8E0A8F0B7FF47E011209D2
:1006310082AF091207DB8E0C8F0D7FF47E01120948
:1006410082C3E50D950BE50C950A5004AF098002B4
:05065100AF080204E8FF
:10085A00C2AFE4F511D2A7120A9EC2A7120A510525
:10086A0011C3E5116480948A40EBD2AF7F647E00A5
:03087A00020982EE
:10087D00C2AFE4F511D2A7120AB0C2A7120AA7059A
:10088D0011C3E5116480948A40EBD2AF7F647E0082
:03089D00020982CB
:1008A000C2AFE4F511D2A7120A5BC2A7120A65050E
:1008B00011C3E5116480948A40EBD2AF7F647E005F
:0308C000020982A8
:1008C300C2AFE4F511D2A7120AC2C2A7120ACB051E
:1008D30011C3E5116480948A40EBD2AF7F647E003C
:0308E30002098285
:1008E600C2AFE4F511D2A7120AB9C2A7120A6F0560
:1008F60011C3E5116480948A40EBD2AF7F647E0019
:0309060002098261
:10002E00EC4D6011E8497017ED33EC3304600DE4CC
:10003E00FCFFFEFD22E933E8330470F80201DE1204
:10004E0001A958046009E4CC248150062850090205
:10005E0001E82840030201E5C0E0EB4A7044B98094
:10006E0006D0E0FB0201D4EF4E701CBD8008EBFF02
:10007E00EAFEE9FD80EBE98DF0A4FEE5F002011742
:10008E00E9CDF9EAFEEBFFEF89F0A4FCE5F0CE89AD
:10009E00F0A42EFFE435F0CD89F0A42DFEE435F06A
:1000AE008067EF4E7005BD80D780C3EF8BF0A4AC98
:1000BE00F0EE8BF0A42CFCE435F0F8EF8AF0A42CD3
:1000CE00E5F038FCE433CB8DF0A42CFCE5F03BF8E6
:1000DE00EE8AF0A42CFCE5F038F8E433CF89F0A4D6
:1000EE002CFCE5F038CF3400CE89F0A42FFFE5F0DC
:1000FE003EFEE433C98DF0A42EFEE5F039CD8AF034
:10010E00A42FFFE5F03EFEE43DFD33D0E0FB5007AB
:10011E000BBB000F0201E8EC2CFCEF33FFEE33FEBD
:06012E00ED33FD0201C0EB
:1001340075F020800E75F010800575F0087D007E46
:10014400007F003392D530D5031202D8EC3340102F
:10015400EF33FFEE33FEED33FDEC33FCD5F0ED224F
:0E016400E5F0247EA2D513CC92E7CDCEFF228B
:10017200EDD2E7CD33EC3392D524814006E4FFFE85
:10018200FDFC22FCE4CFCECDCC24E0501174FF80E4
:10019200EDC3CC13CCCD13CDCE13CECF13CF047081
:0701A200F030D5DE0202D8A7
:1001A900E9D2E7C933E833F892D5EDD2E7CD33EC9C
:0701B90033FC5002B2D52215
:1001C000EC30E7100FBF000C0EBE00080DBD0004A0
:1001D0000BEB6014A2D5EB13FCED92E7FD2274FF4C
:1001E000FCFDFEFF22E480F8A2D574FF13FC7D80A5
:0301F000E480EFB9
:0300000002057581
:0C057500787FE4F6D8FD75813B0205BCE0
:1001F300BB010689828A83E0225002E722BBFE020A
:09020300E32289828A83E493223C
:10020C00BB010689828A83F0225002F722BBFE01D1
:02021C00F322CB
:10021E00BC000BBE0029EF8DF084FFADF022E4CCC4
:10022E00F875F008EF2FFFEE33FEEC33FCEE9DEC8D
:10023E00984005FCEE9DFE0FD5F0E9E4CEFD22EDD3
:10024E00F8F5F0EE8420D21CFEADF075F008EF2F1D
:10025E00FFED33FD4007985006D5F0F222C398FD0E
:05026E000FD5F0EA22AB
:10027300BB0110E58229F582E5833AF583E0F5F0C9
:10028300A3E0225009E92582F886F008E622BBFEA6
:100293000AE92582F8E2F5F008E222E5832AF583EC
:0802A300E993F5F0A3E99322B1
:1002AB00F8BB0111E58229F582E5833AF583E8F085
:1002BB00E5F0A3F0225009E92582C8F608A6F02242
:0D02CB00BBFE09E92582C8F2E5F008F22229
:0E02D800C3E49FFFE49EFEE49DFDE49CFC2237
:100581000207A5E493A3F8E493A34003F68001F2E4
:1005910008DFF48029E493A3F85407240CC8C3337B
:1005A100C4540F4420C8834004F456800146F6DF4A
:1005B100E4800B010204081020408090092AE47EA7
:1005C100019360BCA3FF543F30E509541FFEE4933F
:1005D100A360010ECF54C025E060A840B8E493A306
:1005E100FAE493A3F8E493A3C8C582C8CAC583CA31
:1005F100F0A3C8C582C8CAC583CADFE9DEE780BEE9
:0109480000AE
:00000001FF
