:10098F00506C656173652070726573732074686550
:0D099F0000533220746F2073746172740075
:1009AC0020B0FD7F057E001209E020B0F330B0FDD1
:0C09BC00C2A37FC87E001209E0D2A32273
:10089A00120AF7120B001209F71209267BFF7A09CE
:1008AA00798FE4FDFF1208FE7BFF7A0979A07D01AA
:1008BA00E4FF1208FE1209AC120B2E120A1D120ACC
:0308CA002E80F885
:0D000E008F178D16C292D293D296C2972200
:0D001E008F178D16C292C293D296C2972200
:0D0A7D008F178D16D292C293D296C2972287
:0D0A8A008F178D16C292D293C296C297228A
:0D0A97008F178D16C292D293C296D297226D
:090AEE00C292C293C296C2972283
:090AF700D2A9D2ABD2ADD2AF22DC
:0C0AA400438902758CA4758AA4D28C22B0
:090B0000438910E4F58DF58B2208
:03000B0002086385
:10086300C0E0C0D00518E518B4FF03751800E516FD
:10087300C395184002D295E517C395184002D29448
:10088300E517C395185002C294E516C39518500294
:07089300C295D0D0D0E03285
:03001B00020003DD
:05000300D200C2A03292
:0A0ABC00E4F5C9F5C8F5CDF5CC222C
:03002B00020B24A1
:050B2400D201C2A43261
:1009E0007D737C00ED1D70011C144C70F7EF1F70BF
:0609F000011E144E70EA26
:0109F60022DE
:040B29007F04DFFE68
:010B2D0022A5
:080B09007F037EC4DEFEDFFC69
:010B110022C1
:090AC600007F227E10DEFEDFFC41
:010ACF002204
:090AD000007F027E0FDEFEDFFC58
:010AD90022FA
:090ADA00007F237EC5DEFEDFFC77
:010AE30022F0
:080B12007F207E5DDEFEDFFCAA
:010B1A0022B8
:080B1B007F057E78DEFEDFFCA1
:010B230022AF
:100A0B007580FFC2B5D2B6D2B4AF80C2B4EF20E7C7
:010A1B00F6E4
:010A1C0022B7
:100A3F00AE07120A0BC2B5C2B68E80D2B4C2B422B0
:100A4F00AE07120A0BD2B5C2B68E80D2B4C2B42290
:050B2E007F01020A3FF7
:0C0AB000ED6003430740430780020A3F4B
:0A0AE400AC03120AB0AF04020A4F7F
:1008FE008B0A8A0B890C120AB0AB0AAA0BA90C122E
:10090E0001F36013050CE50C7002050B14F91201CE
:08091E00F3FF120A4F80E222F0
:1009F7007F38120A3F7F0C120A3F7F06120A3F7F99
:040A070001020A3F9F
:0F0A5F00C2A10000000000D2A1120B29C2A122E7
:10070B00E4F509F50AF50BF50CC2A9120A5F30A046
:10071B00FDD28E20A0FDC28ED2A9AF8DEFFEAD8B88
:10072B007C00E42DF50CEC3EF50BE4F58DF58BAC74
:10073B000BAD0C1201397B777AE0793C783E1200D5
:08074B002E1201728E098F0AC3
:010753002283
:0F0A6E00C2A50000000000D2A5120B29C2A522CC
:1007E200E4F509F50AF50BF50C120A6E30A4FDD2F8
:1007F200CA20A4FDC2CAAFCDEFFEADCC7C00E42D71
:10080200F50CEC3EF50BE4F5CDF5CCAC0BAD0C12D2
:1008120001397B777AE0793C783E12002E12017220
:040822008E098F0AA2
:0108260022AF
:10082700212121204F7574206F662072616E6765E4
:100837000044697374616E63653A30303030204D1F
:100847004D00303132333435363738390000003017
:0C085700313233343536373839000000B8
:1008CD00043F000000000231000002210000022F51
:1008DD0000000A2300000000000000000000044397
:1008ED00000000000A3300000000000000000000BE
:10051C008E088F09C3E5099488E5089413500330BD
:10052C00000EC2007BFF7A087927E4FDFF0208FE6B
:10053C00AE08AF097C037DE812020C8F3FAE08AF0A
:10054C00097C037DE812020C7E007F64CFCDCFCEF8
:10055C00CCCE12020C8F40AE08AF097C007D641229
:10056C00020C7E007F0ACFCDCFCECCCE12020C8FE8
:10057C0041AE08AF097C007D0A12020C8D427BFF54
:10058C007A087938E4FDFF1208FEE53F900849939C
:10059C00FBE4FD7F09120AE4E54090084993FBE473
:1005AC00FD7F0A120AE4E54190084993FBE4FD7FC4
:1005BC000B120AE4E54290084993FBE4FD7F0C1210
:0305CC000AE4221C
:0205CF008D0994
:1005D100E4F50AF50BE50924FFFFE434FFFEC3E56A
:1005E1000B9FE50A9E400302067EE50B2401F50DF3
:1005F100E4350AF50CC3E50D9509E50C9400506F3F
:10060100E50D25E0FFE50C338F82F583120261FDD4
:10061100ACF0E50B25E0FFE50A338F82F58312028A
:1006210061FFAEF0D39DEE9C403B8E0E8F0FE50D2A
:1006310025E0FFE50C338F82F583120261FDE50BA6
:1006410025E0FFE50A338F82F583E5F08DF0120294
:1006510099E50D25E0FFE50C338F82F583E50E85E5
:100661000FF0120299050DE50D708A050C808605C3
:0D0671000BE50B60030205D6050A0205D655
:01067E002259
:10075400E4F50812070BE50825E02423F8A60608AB
:10076400A6077F3C7E001209E00508E508C394054E
:1007740040E17B007A0079237D051205CFE526252B
:1007840028FFE5253527FEE52A2FFFE5293EFE7CD7
:06079400007D0312020CBF
:01079A00223C
:1009C800209007AD15AF14020A8AAD15AF14209117
:0809D8000302001E12000E22B2
:0402D4008E108F11E8
:1002D80012070B8E128F13C3E5139511E5129510B3
:1002E800400302044D7B44E4FDFF120AE4AF13AE61
:1002F8001212051C120AEE7F327E001209E0120962
:10030800491207548E318F327B4CE4FDFF120AE408
:10031800AF32AE3112051C7F327E001209E012099D
:100328006C1207548E218F227B52E4FDFF120AE4DF
:10033800AF22AE2112051C7F327E001209E012099D
:10034800261207548E2F8F307B46E4FDFF120AE4F5
:10035800AF30AE2F12051C7F327E001209E0C3E5D4
:10036800309464E52F94005050C3E5329464E5312D
:1003780094005045C3E5229464E5219400503A7DE9
:10038800FF7FFF120A7D7F327E001209E0120926E4
:100398001207548E128F137B44E4FDFF120AE4AF58
:1003A80013AE1212051C7F647E001209E0C3E51328
:1003B80094C8E512940040C722D3E5309532E52F62
:1003C80095314028D3E5309522E52F9521401D7BB6
:1003D80046E4FDFF120AE4AF30AE2F12051C7F641D
:1003E8007E001209E0AD15AF1402000ED3E5329578
:1003F80022E5319521401F7B4CE4FDFF120AE4AF52
:1004080032AE3112051C7F647E001209E07DFF7F49
:10041800FF120A7D8028D3E5229532E521953140E7
:100428003D7B52E4FDFF120AE4AF22AE2112051C07
:100438007F647E001209E07DFF7FFF120A977F50DC
:100448007E000209E0E4F512F5131209C80513E568
:0E0458001370020512C39408E512940740ECDD
:010466002273
:100467008E088F09C3E50994C4E508940950033041
:10047700010FC2017BFF7A0879277D01E4FF02089B
:10048700FEAE08AF097C037DE812020C8F43AE086D
:10049700AF097C037DE812020C7E007F64CFCDCFCD
:1004A700CECCCE12020C8F44AE08AF097C007D641F
:1004B70012020C7E007F0ACFCDCFCECCCE12020C1B
:1004C7008F45AE08AF097C007D0A12020C8D467B72
:1004D700FF7A0879387D01E4FF1208FEE5439008AA
:1004E7005693FB7D017F09120AE4E5449008569371
:1004F700FB7D017F0A120AE4E54590085693FB7DD0
:10050700017F0B120AE4E54690085693FB7D017FB5
:050517000C120AE422B1
:10079B00E4F5081207E2E50825E02433F8A606087D
:1007AB00A6077F3C7E001209E00508E508C3940507
:1007BB0040E17B007A0079337D051205CFE53625C4
:1007CB0038FFE5353537FEE53A2FFFE5393EFE7C40
:0607DB00007D0312020C78
:0107E10022F5
:100A1D0012079B8E2D8F2E1204677F327E000209E6
:010A2D00E0E8
:100A2E001207548E3D8F3E12051C7F327E00020946
:010A3E00E0D7
:10092600C2AFE4F508D2A7120B09C2A7120AC60580
:1009360008C3E5086480948A40EBD2AF7F647E00EA
:030946000209E0C3
:10094900C2AFE4F519D2A7120B1BC2A7120B1205ED
:1009590019C3E5196480948A40EBD2AF7F647E00A5
:030969000209E0A0
:10096C00C2AFE4F51AD2A7120AD0C2A7120ADA054E
:10097C001AC3E51A6480948A40EBD2AF7F647E0080
:03098C000209E07D
:10002E00EC4D6011E8497017ED33EC3304600DE4CC
:10003E00FCFFFEFD22E933E8330470F80201DE1204
:10004E0001A958046009E4CC248150062850090205
:10005E0001E82840030201E5C0E0EB4A7044B98094
:10006E0006D0E0FB0201D4EF4E701CBD8008EBFF02
:10007E00EAFEE9FD80EBE98DF0A4FEE5F002011742
:10008E00E9CDF9EAFEEBFFEF89F0A4FCE5F0CE89AD
:10009E00F0A42EFFE435F0CD89F0A42DFEE435F06A
:1000AE008067EF4E7005BD80D780C3EF8BF0A4AC98
:1000BE00F0EE8BF0A42CFCE435F0F8EF8AF0A42CD3
:1000CE00E5F038FCE433CB8DF0A42CFCE5F03BF8E6
:1000DE00EE8AF0A42CFCE5F038F8E433CF89F0A4D6
:1000EE002CFCE5F038CF3400CE89F0A42FFFE5F0DC
:1000FE003EFEE433C98DF0A42EFEE5F039CD8AF034
:10010E00A42FFFE5F03EFEE43DFD33D0E0FB5007AB
:10011E000BBB000F0201E8EC2CFCEF33FFEE33FEBD
:06012E00ED33FD0201C0EB
:1001340075F020800E75F010800575F0087D007E46
:10014400007F003392D530D5031202C6EC33401041
:10015400EF33FFEE33FEED33FDEC33FCD5F0ED224F
:0E016400E5F0247EA2D513CC92E7CDCEFF228B
:10017200EDD2E7CD33EC3392D524814006E4FFFE85
:10018200FDFC22FCE4CFCECDCC24E0501174FF80E4
:10019200EDC3CC13CCCD13CDCE13CECF13CF047081
:0701A200F030D5DE0202C6B9
:1001A900E9D2E7C933E833F892D5EDD2E7CD33EC9C
:0701B90033FC5002B2D52215
:1001C000EC30E7100FBF000C0EBE00080DBD0004A0
:1001D0000BEB6014A2D5EB13FCED92E7FD2274FF4C
:1001E000FCFDFEFF22E480F8A2D574FF13FC7D80A5
:0301F000E480EFB9
:0300000002067F76
:0C067F00787FE4F6D8FD7581460206C6BF
:1001F300BB010689828A83E0225002E722BBFE020A
:09020300E32289828A83E493223C
:10020C00BC000BBE0029EF8DF084FFADF022E4CCD6
:10021C00F875F008EF2FFFEE33FEEC33FCEE9DEC9F
:10022C00984005FCEE9DFE0FD5F0E9E4CEFD22EDE5
:10023C00F8F5F0EE8420D21CFEADF075F008EF2F2F
:10024C00FFED33FD4007985006D5F0F222C398FD20
:05025C000FD5F0EA22BD
:10026100BB0110E58229F582E5833AF583E0F5F0DB
:10027100A3E0225009E92582F886F008E622BBFEB8
:100281000AE92582F8E2F5F008E222E5832AF583FE
:08029100E993F5F0A3E99322C3
:10029900F8BB0111E58229F582E5833AF583E8F097
:1002A900E5F0A3F0225009E92582C8F608A6F02254
:0D02B900BBFE09E92582C8F2E5F008F2223B
:0E02C600C3E49FFFE49EFEE49DFDE49CFC2249
:10068B0002089AE493A3F8E493A34003F68001F2E3
:10069B0008DFF48029E493A3F85407240CC8C33370
:1006AB00C4540F4420C8834004F456800146F6DF3F
:1006BB00E4800B01020408102040809008CDE47EFA
:1006CB00019360BCA3FF543F30E509541FFEE49334
:1006DB00A360010ECF54C025E060A840B8E493A3FB
:1006EB00FAE493A3F8E493A3C8C582C8CAC583CA26
:1006FB00F0A3C8C582C8CAC583CADFE9DEE780BEDE
:0108FD0000FA
:00000001FF
