:1000C200758902E4F58CF58AD2AFD2A9D28CD28896
:0300D200D2A8228F
:03000B00020006EA
:0300060005473279
:03000300020050A8
:09005000C0E0C0D075D000C00072
:10005900300029E547C39435500AE547C394204049
:100069000375210074222521F8A64775470005214B
:10007900E521B4210CD2027521008005754700D213
:010089000076
:07008A00D000D0D0D0E0321D
:100091007E01E4FDE4FC74222EF8E6D394054003CE
:1000A100430780ECC394075004EFC313FF0E0CBC4D
:1000B10008E474432DF8A607E4FF0DBD04D6D20170
:0100C100221C
:0900E100C292D293D296C297227A
:0900EA00D292C293C296D2972271
:0900F300C292C293D296C2972278
:0900FC00C296C297C292D293226F
:09010500C296C297C292C2932275
:10000E001200C2D295D2943002FD120091C202307B
:10001E0001F5E54524EB601424D5601F24FD601620
:10002E0014600E24FE70171200E180121200EA8096
:10003E000D1200F380081200FC8003120105C201AC
:02004E0080C56B
:030000000200D526
:0C00D500787FE4F6D8FD75814702000E2C
:00000001FF
