:10000E001200031200D37D827F6412009F7FD07E88
:10001E00071200887D827F641200AC7FD07E0712AB
:10002E0000887D827F641200B97FD07E071200881F
:10003E007D827F641200C67FD07E07120088120078
:03004E00EB80FE46
:0D009F008F098D08C292D293D296C297228B
:0D00AC008F098D08D292C293C296D297227E
:0D00B9008F098D08C292C293D296C2972281
:0D00C6008F098D08C292D293C296C2972274
:0900EB00C292C293C296C2972290
:05000300D2A9D2AF22DA
:0C00D300438902758CA4758AA4D28C228B
:03000B000200519F
:10005100C0E0C0D0050AE50AB4FF03750A00E5084F
:10006100C3950A4002D295E509C3950A4002D2948C
:10007100E509C3950A5002C294E508C3950A5002E6
:07008100C295D0D0D0E0329F
:100088007D737C00ED1D70011C144C70F7EF1F7020
:06009800011E144E70EA87
:01009E00223F
:030000000200DF1C
:0C00DF00787FE4F6D8FD75810A02000E5F
:00000001FF
